{
  "contractName": "Crud",
  "abi": [
    {
      "inputs": [],
      "name": "nextId",
      "outputs": [
        {
          "internalType": "uint256",
          "name": "",
          "type": "uint256"
        }
      ],
      "stateMutability": "view",
      "type": "function"
    },
    {
      "inputs": [
        {
          "internalType": "uint256",
          "name": "",
          "type": "uint256"
        }
      ],
      "name": "users",
      "outputs": [
        {
          "internalType": "uint256",
          "name": "id",
          "type": "uint256"
        },
        {
          "internalType": "string",
          "name": "name",
          "type": "string"
        }
      ],
      "stateMutability": "view",
      "type": "function"
    },
    {
      "inputs": [
        {
          "internalType": "string",
          "name": "_name",
          "type": "string"
        }
      ],
      "name": "create",
      "outputs": [],
      "stateMutability": "nonpayable",
      "type": "function"
    },
    {
      "inputs": [
        {
          "internalType": "uint256",
          "name": "_id",
          "type": "uint256"
        }
      ],
      "name": "read",
      "outputs": [
        {
          "internalType": "uint256",
          "name": "",
          "type": "uint256"
        },
        {
          "internalType": "string",
          "name": "",
          "type": "string"
        }
      ],
      "stateMutability": "view",
      "type": "function"
    },
    {
      "inputs": [
        {
          "internalType": "uint256",
          "name": "_id",
          "type": "uint256"
        },
        {
          "internalType": "string",
          "name": "_name",
          "type": "string"
        }
      ],
      "name": "update",
      "outputs": [],
      "stateMutability": "nonpayable",
      "type": "function"
    },
    {
      "inputs": [
        {
          "internalType": "uint256",
          "name": "_id",
          "type": "uint256"
        }
      ],
      "name": "destroy",
      "outputs": [],
      "stateMutability": "nonpayable",
      "type": "function"
    }
  ],
  "bytecode": "0x60806040526001805534801561001457600080fd5b50610af7806100246000396000f3fe608060405234801561001057600080fd5b50600436106100625760003560e01c8063365b98b21461006757806361b8ce8c146100985780639d118770146100b6578063b6a46b3b146100d2578063ed2e5a97146100ee578063f745630f1461011f575b600080fd5b610081600480360381019061007c9190610758565b61013b565b60405161008f929190610898565b60405180910390f35b6100a06101f7565b6040516100ad919061087d565b60405180910390f35b6100d060048036038101906100cb9190610758565b6101fd565b005b6100ec60048036038101906100e79190610717565b610271565b005b61010860048036038101906101039190610758565b6102f7565b604051610116929190610898565b60405180910390f35b61013960048036038101906101349190610781565b610435565b005b6000818154811061014b57600080fd5b906000526020600020906002020160009150905080600001549080600101805461017490610991565b80601f01602080910402602001604051908101604052809291908181526020018280546101a090610991565b80156101ed5780601f106101c2576101008083540402835291602001916101ed565b820191906000526020600020905b8154815290600101906020018083116101d057829003601f168201915b5050505050905082565b60015481565b6000610208826104a7565b905060008181548110610244577f4e487b7100000000000000000000000000000000000000000000000000000000600052603260045260246000fd5b906000526020600020906002020160008082016000905560018201600061026b91906105b7565b50505050565b6000604051806040016040528060015481526020018381525090806001815401808255809150506001900390600052602060002090600202016000909190919091506000820151816000015560208201518160010190805190602001906102d99291906105f7565b505050600160008154809291906102ef906109c3565b919050555050565b600060606000610306846104a7565b905060008181548110610342577f4e487b7100000000000000000000000000000000000000000000000000000000600052603260045260246000fd5b9060005260206000209060020201600001546000828154811061038e577f4e487b7100000000000000000000000000000000000000000000000000000000600052603260045260246000fd5b90600052602060002090600202016001018080546103ab90610991565b80601f01602080910402602001604051908101604052809291908181526020018280546103d790610991565b80156104245780601f106103f957610100808354040283529160200191610424565b820191906000526020600020905b81548152906001019060200180831161040757829003601f168201915b505050505090509250925050915091565b6000610440836104a7565b9050816000828154811061047d577f4e487b7100000000000000000000000000000000000000000000000000000000600052603260045260246000fd5b906000526020600020906002020160010190805190602001906104a19291906105f7565b50505050565b600080600090505b6000805490508110156105765782600082815481106104f7577f4e487b7100000000000000000000000000000000000000000000000000000000600052603260045260246000fd5b90600052602060002090600202016000015414156105635760008181548110610549577f4e487b7100000000000000000000000000000000000000000000000000000000600052603260045260246000fd5b9060005260206000209060020201600001549150506105b2565b808061056e906109c3565b9150506104af565b506040517f08c379a00000000000000000000000000000000000000000000000000000000081526004016105a99061085d565b60405180910390fd5b919050565b5080546105c390610991565b6000825580601f106105d557506105f4565b601f0160209004906000526020600020908101906105f3919061067d565b5b50565b82805461060390610991565b90600052602060002090601f016020900481019282610625576000855561066c565b82601f1061063e57805160ff191683800117855561066c565b8280016001018555821561066c579182015b8281111561066b578251825591602001919060010190610650565b5b509050610679919061067d565b5090565b5b8082111561069657600081600090555060010161067e565b5090565b60006106ad6106a8846108f9565b6108c8565b9050828152602081018484840111156106c557600080fd5b6106d084828561094f565b509392505050565b600082601f8301126106e957600080fd5b81356106f984826020860161069a565b91505092915050565b60008135905061071181610aaa565b92915050565b60006020828403121561072957600080fd5b600082013567ffffffffffffffff81111561074357600080fd5b61074f848285016106d8565b91505092915050565b60006020828403121561076a57600080fd5b600061077884828501610702565b91505092915050565b6000806040838503121561079457600080fd5b60006107a285828601610702565b925050602083013567ffffffffffffffff8111156107bf57600080fd5b6107cb858286016106d8565b9150509250929050565b60006107e082610929565b6107ea8185610934565b93506107fa81856020860161095e565b61080381610a99565b840191505092915050565b600061081b601483610934565b91507f557365727320646f6573206e6f742065786973740000000000000000000000006000830152602082019050919050565b61085781610945565b82525050565b600060208201905081810360008301526108768161080e565b9050919050565b6000602082019050610892600083018461084e565b92915050565b60006040820190506108ad600083018561084e565b81810360208301526108bf81846107d5565b90509392505050565b6000604051905081810181811067ffffffffffffffff821117156108ef576108ee610a6a565b5b8060405250919050565b600067ffffffffffffffff82111561091457610913610a6a565b5b601f19601f8301169050602081019050919050565b600081519050919050565b600082825260208201905092915050565b6000819050919050565b82818337600083830152505050565b60005b8381101561097c578082015181840152602081019050610961565b8381111561098b576000848401525b50505050565b600060028204905060018216806109a957607f821691505b602082108114156109bd576109bc610a3b565b5b50919050565b60006109ce82610945565b91507fffffffffffffffffffffffffffffffffffffffffffffffffffffffffffffffff821415610a0157610a00610a0c565b5b600182019050919050565b7f4e487b7100000000000000000000000000000000000000000000000000000000600052601160045260246000fd5b7f4e487b7100000000000000000000000000000000000000000000000000000000600052602260045260246000fd5b7f4e487b7100000000000000000000000000000000000000000000000000000000600052604160045260246000fd5b6000601f19601f8301169050919050565b610ab381610945565b8114610abe57600080fd5b5056fea2646970667358221220243532cdda74d1d51d043707cab1742f58cedc3cb87f50ab1d5e175d8b9e338e64736f6c63430008000033",
  "immutableReferences": {},
  "source": "pragma solidity ^0.8.0;\n\n/**\n * The Crud contract does this and that...\n */\ncontract Crud {\n\n    struct User {\n        uint id;\n        string name;\n    }\n\n    User[] public users;\n    uint public nextId = 1;\n\n    function create(string memory _name) public {\n        users.push(User(nextId, _name));\n        nextId++;\n    }\n\n    function read(uint _id) view public returns (uint , string memory){\n        uint i = find(_id);\n        return(users[i].id, users[i].name);\n    }\n\n    function update(uint _id, string memory _name) public {\n        uint i = find(_id);\n        users[i].name = _name;\n    }\n\n    function destroy(uint _id) public {\n        uint i = find(_id);\n        delete users[i];\n    }\n\n    function find (uint _id) view internal returns(uint){\n        for(uint i=0; i < users.length; i++) {\n            if(users[i].id == _id) return users[i].id;\n        }\n        revert('Users does not exist');\n    }\n}\n\n",
  "sourcePath": "/home/abbracx/Documents/Blockchain-Projects/Solidity-Test/contracts/Crud.sol",
  "compiler": {
    "name": "solc",
    "version": "0.8.0+commit.c7dfd78e.Emscripten.clang"
  },
  "schemaVersion": "3.3.4",
  "updatedAt": "2021-09-21T06:55:02.845Z",
  "devdoc": {
    "kind": "dev",
    "methods": {},
    "version": 1
  },
  "userdoc": {
    "kind": "user",
    "methods": {},
    "notice": "The Crud contract does this and that...",
    "version": 1
  }
}